{
  "deployments": [
    {
      "transactions": [
        {
          "hash": "0x16f967667eb2884006b96adaea2238412aa6ce4bb5b52fdf09a3a7803eabdaa5",
          "transactionType": "CALL",
          "contractName": "DeployHostIt",
          "contractAddress": "0xc7f2cf4845c6db0e1a1e91ed41bcd0fcc1b0e141",
          "function": "run(address,uint8[],address[])",
          "arguments": [
            "0x7D413F244A0e9A0b9C8D7F9AFA1177eE3a2837fa",
            "[3, 2, 7, 1, 4]",
            "[0x036CbD53842c5426634e7929541eC2318f3dCF7e, 0x7169D38820dfd117C3FA1f22a697dBA58d90BA06, 0xE4aB69C077896252FAFBD49EFD26B5D171A32410, 0xE4aB69C077896252FAFBD49EFD26B5D171A32410, 0x808456652fdb597867f38412077A9182bf77359F]"
          ],
          "transaction": {
            "from": "0x7d413f244a0e9a0b9c8d7f9afa1177ee3a2837fa",
            "to": "0xc7f2cf4845c6db0e1a1e91ed41bcd0fcc1b0e141",
            "gas": "0xa11b",
            "value": "0x0",
            "input": "0x0cad7a040000000000000000000000007d413f244a0e9a0b9c8d7f9afa1177ee3a2837fa000000000000000000000000000000000000000000000000000000000000006000000000000000000000000000000000000000000000000000000000000001200000000000000000000000000000000000000000000000000000000000000005000000000000000000000000000000000000000000000000000000000000000300000000000000000000000000000000000000000000000000000000000000020000000000000000000000000000000000000000000000000000000000000007000000000000000000000000000000000000000000000000000000000000000100000000000000000000000000000000000000000000000000000000000000040000000000000000000000000000000000000000000000000000000000000005000000000000000000000000036cbd53842c5426634e7929541ec2318f3dcf7e0000000000000000000000007169d38820dfd117c3fa1f22a697dba58d90ba06000000000000000000000000e4ab69c077896252fafbd49efd26b5d171a32410000000000000000000000000e4ab69c077896252fafbd49efd26b5d171a32410000000000000000000000000808456652fdb597867f38412077a9182bf77359f",
            "nonce": "0x78",
            "chainId": "0x14a34"
          },
          "additionalContracts": [],
          "isFixedGasLimit": false
        }
      ],
      "receipts": [
        {
          "status": "0x1",
          "cumulativeGasUsed": "0xb53eda",
          "logs": [],
          "logsBloom": "0x00000000000000000000000000000000000000000000000000000000000000000000000000000000000000000000000000000000000000000000000000000000000000000000000000000000000000000000000000000000000000000000000000000000000000000000000000000000000000000000000000000000000000000000000000000000000000000000000000000000000000000000000000000000000000000000000000000000000000000000000000000000000000000000000000000000000000000000000000000000000000000000000000000000000000000000000000000000000000000000000000000000000000000000000000000000",
          "type": "0x2",
          "transactionHash": "0x16f967667eb2884006b96adaea2238412aa6ce4bb5b52fdf09a3a7803eabdaa5",
          "transactionIndex": "0x28",
          "blockHash": "0x4a853c60c5cf26b52ac465225ea41a3ed82d4dd4a17d72dd2b6b5c7f637eef93",
          "blockNumber": "0x1a587cd",
          "gasUsed": "0x74a4",
          "effectiveGasPrice": "0xd827a",
          "from": "0x7d413f244a0e9a0b9c8d7f9afa1177ee3a2837fa",
          "to": "0xc7f2cf4845c6db0e1a1e91ed41bcd0fcc1b0e141",
          "contractAddress": null,
          "l1BaseFeeScalar": "0x44d",
          "l1BlobBaseFee": "0x1",
          "l1BlobBaseFeeScalar": "0xa118b",
          "l1Fee": "0x178c2fd",
          "l1GasPrice": "0x624d87",
          "l1GasUsed": "0xd99"
        }
      ],
      "libraries": [],
      "pending": [],
      "returns": {},
      "timestamp": 1751019108,
      "chain": 84532,
      "commit": "321a289"
    },
    {
      "transactions": [
        {
          "hash": "0x074c55615a45102ae4715fbb45f13b0a81ff2a67dce185814a2ef45386f45c23",
          "transactionType": "CALL",
          "contractName": "DeployHostIt",
          "contractAddress": "0xc7f2cf4845c6db0e1a1e91ed41bcd0fcc1b0e141",
          "function": "run(address,uint8[],address[])",
          "arguments": [
            "0x7D413F244A0e9A0b9C8D7F9AFA1177eE3a2837fa",
            "[3, 7, 1, 8]",
            "[0x0E82fDDAd51cc3ac12b69761C45bBCB9A2Bf3C83, 0x6641415a61bCe80D97a715054d1334360Ab833Eb, 0x4200000000000000000000000000000000000006, 0x8a21CF9Ba08Ae709D64Cb25AfAA951183EC9FF6D]"
          ],
          "transaction": {
            "from": "0x7d413f244a0e9a0b9c8d7f9afa1177ee3a2837fa",
            "to": "0xc7f2cf4845c6db0e1a1e91ed41bcd0fcc1b0e141",
            "gas": "0x972e",
            "value": "0x0",
            "input": "0x0cad7a040000000000000000000000007d413f244a0e9a0b9c8d7f9afa1177ee3a2837fa000000000000000000000000000000000000000000000000000000000000006000000000000000000000000000000000000000000000000000000000000001000000000000000000000000000000000000000000000000000000000000000004000000000000000000000000000000000000000000000000000000000000000300000000000000000000000000000000000000000000000000000000000000070000000000000000000000000000000000000000000000000000000000000001000000000000000000000000000000000000000000000000000000000000000800000000000000000000000000000000000000000000000000000000000000040000000000000000000000000e82fddad51cc3ac12b69761c45bbcb9a2bf3c830000000000000000000000006641415a61bce80d97a715054d1334360ab833eb00000000000000000000000042000000000000000000000000000000000000060000000000000000000000008a21cf9ba08ae709d64cb25afaa951183ec9ff6d",
            "nonce": "0x1",
            "chainId": "0x106a"
          },
          "additionalContracts": [],
          "isFixedGasLimit": false
        }
      ],
      "receipts": [
        {
          "status": "0x1",
          "cumulativeGasUsed": "0x14260",
          "logs": [],
          "logsBloom": "0x00000000000000000000000000000000000000000000000000000000000000000000000000000000000000000000000000000000000000000000000000000000000000000000000000000000000000000000000000000000000000000000000000000000000000000000000000000000000000000000000000000000000000000000000000000000000000000000000000000000000000000000000000000000000000000000000000000000000000000000000000000000000000000000000000000000000000000000000000000000000000000000000000000000000000000000000000000000000000000000000000000000000000000000000000000000",
          "type": "0x2",
          "transactionHash": "0x074c55615a45102ae4715fbb45f13b0a81ff2a67dce185814a2ef45386f45c23",
          "transactionIndex": "0x1",
          "blockHash": "0xf7308ac933345ab938bfd8ed463e4ae7c00c2a010c964e933acec6c86233ad17",
          "blockNumber": "0x15cb5d0",
          "gasUsed": "0x6d74",
          "effectiveGasPrice": "0xfe",
          "from": "0x7d413f244a0e9a0b9c8d7f9afa1177ee3a2837fa",
          "to": "0xc7f2cf4845c6db0e1a1e91ed41bcd0fcc1b0e141",
          "contractAddress": null,
          "l1BaseFeeScalar": "0x2af8",
          "l1BlobBaseFee": "0x1",
          "l1BlobBaseFeeScalar": "0x109618",
          "l1Fee": "0x66e025e",
          "l1GasPrice": "0x30973c",
          "l1GasUsed": "0xc07"
        }
      ],
      "libraries": [],
      "pending": [],
      "returns": {},
      "timestamp": 1751019109,
      "chain": 4202,
      "commit": "321a289"
    },
    {
      "transactions": [
        {
          "hash": "0xd4af488875428a86c04ca6a3a83d3e327f2f96efe0a0dcce2612c4c9a84ddf51",
          "transactionType": "CALL",
          "contractName": "DeployHostIt",
          "contractAddress": "0xc7f2cf4845c6db0e1a1e91ed41bcd0fcc1b0e141",
          "function": "run(address,uint8[],address[])",
          "arguments": [
            "0x7D413F244A0e9A0b9C8D7F9AFA1177eE3a2837fa",
            "[3, 7, 1]",
            "[0x5Df6eD08EEC2fD5e41914d291c0cf48Cd3564421, 0xb1D4538B4571d411F07960EF2838Ce337FE1E80E, 0xE591bf0A0CF924A0674d7792db046B23CEbF5f34]"
          ],
          "transaction": {
            "from": "0x7d413f244a0e9a0b9c8d7f9afa1177ee3a2837fa",
            "to": "0xc7f2cf4845c6db0e1a1e91ed41bcd0fcc1b0e141",
            "gas": "0x7930",
            "value": "0x0",
            "input": "0x0cad7a040000000000000000000000007d413f244a0e9a0b9c8d7f9afa1177ee3a2837fa000000000000000000000000000000000000000000000000000000000000006000000000000000000000000000000000000000000000000000000000000000e0000000000000000000000000000000000000000000000000000000000000000300000000000000000000000000000000000000000000000000000000000000030000000000000000000000000000000000000000000000000000000000000007000000000000000000000000000000000000000000000000000000000000000100000000000000000000000000000000000000000000000000000000000000030000000000000000000000005df6ed08eec2fd5e41914d291c0cf48cd3564421000000000000000000000000b1d4538b4571d411f07960ef2838ce337fe1e80e000000000000000000000000e591bf0a0cf924a0674d7792db046b23cebf5f34",
            "nonce": "0xd0",
            "chainId": "0x66eee"
          },
          "additionalContracts": [],
          "isFixedGasLimit": false
        },
        {
          "hash": null,
          "transactionType": "CALL",
          "contractName": "DeployHostIt",
          "contractAddress": "0xc7f2cf4845c6db0e1a1e91ed41bcd0fcc1b0e141",
          "function": "run(address,uint8[],address[])",
          "arguments": [
            "0x7D413F244A0e9A0b9C8D7F9AFA1177eE3a2837fa",
            "[3, 7, 1]",
            "[0x7bA2e5c37C4151d654Fcc4b41ffF3Fe693c23852, 0x0b9d5D9136855f6FEc3c0993feE6E9CE8a297846, 0xd00ae08403B9bbb9124bB305C09058E32C39A48c]"
          ],
          "transaction": {
            "from": "0x7d413f244a0e9a0b9c8d7f9afa1177ee3a2837fa",
            "to": "0xc7f2cf4845c6db0e1a1e91ed41bcd0fcc1b0e141",
            "gas": "0x7930",
            "value": "0x0",
            "input": "0x0cad7a040000000000000000000000007d413f244a0e9a0b9c8d7f9afa1177ee3a2837fa000000000000000000000000000000000000000000000000000000000000006000000000000000000000000000000000000000000000000000000000000000e0000000000000000000000000000000000000000000000000000000000000000300000000000000000000000000000000000000000000000000000000000000030000000000000000000000000000000000000000000000000000000000000007000000000000000000000000000000000000000000000000000000000000000100000000000000000000000000000000000000000000000000000000000000030000000000000000000000007ba2e5c37c4151d654fcc4b41fff3fe693c238520000000000000000000000000b9d5d9136855f6fec3c0993fee6e9ce8a297846000000000000000000000000d00ae08403b9bbb9124bb305c09058e32c39a48c",
            "nonce": "0xd0",
            "chainId": "0x66eee"
          },
          "additionalContracts": [],
          "isFixedGasLimit": false
        }
      ],
      "receipts": [
        {
          "status": "0x1",
          "cumulativeGasUsed": "0x198dc5",
          "logs": [],
          "logsBloom": "0x00000000000000000000000000000000000000000000000000000000000000000000000000000000000000000000000000000000000000000000000000000000000000000000000000000000000000000000000000000000000000000000000000000000000000000000000000000000000000000000000000000000000000000000000000000000000000000000000000000000000000000000000000000000000000000000000000000000000000000000000000000000000000000000000000000000000000000000000000000000000000000000000000000000000000000000000000000000000000000000000000000000000000000000000000000000",
          "type": "0x2",
          "transactionHash": "0xd4af488875428a86c04ca6a3a83d3e327f2f96efe0a0dcce2612c4c9a84ddf51",
          "transactionIndex": "0x7",
          "blockHash": "0xcfdd2b6026dc5c13f9ac8e6ceff8829f11110a30c46b85a9f09862985d64ea4c",
          "blockNumber": "0x9ff4cac",
          "gasUsed": "0x5be5",
          "effectiveGasPrice": "0x5f5e100",
          "from": "0x7d413f244a0e9a0b9c8d7f9afa1177ee3a2837fa",
          "to": "0xc7f2cf4845c6db0e1a1e91ed41bcd0fcc1b0e141",
          "contractAddress": null,
          "gasUsedForL1": "0x9",
          "l1BlockNumber": "0x83d41a",
          "timeboosted": false
        }
      ],
      "libraries": [],
      "pending": [],
      "returns": {},
      "timestamp": 1751019110,
      "chain": 421614,
      "commit": "321a289"
    }
  ],
  "timestamp": 1751019139
}