{
  "deployments": [
    {
      "transactions": [
        {
          "hash": "0xfa2618af93636cb1662690ad6e887c507557f6de74386600bb6e2b3dab5cfe84",
          "transactionType": "CALL",
          "contractName": "DeployHostIt",
          "contractAddress": "0xc7f2cf4845c6db0e1a1e91ed41bcd0fcc1b0e141",
          "function": "run(uint8[],address[])",
          "arguments": [
            "[3, 2, 7, 1, 4]",
            "[0x036CbD53842c5426634e7929541eC2318f3dCF7e, 0x7169D38820dfd117C3FA1f22a697dBA58d90BA06, 0xE4aB69C077896252FAFBD49EFD26B5D171A32410, 0xE4aB69C077896252FAFBD49EFD26B5D171A32410, 0x808456652fdb597867f38412077A9182bf77359F]"
          ],
          "transaction": {
            "from": "0x7d413f244a0e9a0b9c8d7f9afa1177ee3a2837fa",
            "to": "0xc7f2cf4845c6db0e1a1e91ed41bcd0fcc1b0e141",
            "gas": "0x9bfa",
            "value": "0x0",
            "input": "0xc56b1dd7000000000000000000000000000000000000000000000000000000000000004000000000000000000000000000000000000000000000000000000000000001000000000000000000000000000000000000000000000000000000000000000005000000000000000000000000000000000000000000000000000000000000000300000000000000000000000000000000000000000000000000000000000000020000000000000000000000000000000000000000000000000000000000000007000000000000000000000000000000000000000000000000000000000000000100000000000000000000000000000000000000000000000000000000000000040000000000000000000000000000000000000000000000000000000000000005000000000000000000000000036cbd53842c5426634e7929541ec2318f3dcf7e0000000000000000000000007169d38820dfd117c3fa1f22a697dba58d90ba06000000000000000000000000e4ab69c077896252fafbd49efd26b5d171a32410000000000000000000000000e4ab69c077896252fafbd49efd26b5d171a32410000000000000000000000000808456652fdb597867f38412077a9182bf77359f",
            "nonce": "0x7d",
            "chainId": "0x14a34"
          },
          "additionalContracts": [],
          "isFixedGasLimit": false
        }
      ],
      "receipts": [
        {
          "status": "0x1",
          "cumulativeGasUsed": "0x24424f",
          "logs": [],
          "logsBloom": "0x00000000000000000000000000000000000000000000000000000000000000000000000000000000000000000000000000000000000000000000000000000000000000000000000000000000000000000000000000000000000000000000000000000000000000000000000000000000000000000000000000000000000000000000000000000000000000000000000000000000000000000000000000000000000000000000000000000000000000000000000000000000000000000000000000000000000000000000000000000000000000000000000000000000000000000000000000000000000000000000000000000000000000000000000000000000",
          "type": "0x2",
          "transactionHash": "0xfa2618af93636cb1662690ad6e887c507557f6de74386600bb6e2b3dab5cfe84",
          "transactionIndex": "0xf",
          "blockHash": "0xb78599d901443d5a2090e2658b941bd75c6035c1705d4d7fd3a908bcfb67362c",
          "blockNumber": "0x1a590c6",
          "gasUsed": "0x70ee",
          "effectiveGasPrice": "0xf42a3",
          "from": "0x7d413f244a0e9a0b9c8d7f9afa1177ee3a2837fa",
          "to": "0xc7f2cf4845c6db0e1a1e91ed41bcd0fcc1b0e141",
          "contractAddress": null,
          "l1BaseFeeScalar": "0x44d",
          "l1BlobBaseFee": "0x1",
          "l1BlobBaseFeeScalar": "0xa118b",
          "l1Fee": "0x21b549",
          "l1GasPrice": "0xa6494",
          "l1GasUsed": "0xb81"
        }
      ],
      "libraries": [],
      "pending": [],
      "returns": {},
      "timestamp": 1751023719,
      "chain": 84532,
      "commit": "321a289"
    },
    {
      "transactions": [
        {
          "hash": "0x4116f6a11a2c6b7fdc0d1429f9d165ac16902a64a31aee31c290180fb26281e9",
          "transactionType": "CALL",
          "contractName": "DeployHostIt",
          "contractAddress": "0xdae97900d4b184c5d2012dcdb658c008966466dd",
          "function": "run(uint8[],address[])",
          "arguments": [
            "[3, 7, 1, 8]",
            "[0x0E82fDDAd51cc3ac12b69761C45bBCB9A2Bf3C83, 0x6641415a61bCe80D97a715054d1334360Ab833Eb, 0x4200000000000000000000000000000000000006, 0x8a21CF9Ba08Ae709D64Cb25AfAA951183EC9FF6D]"
          ],
          "transaction": {
            "from": "0x7d413f244a0e9a0b9c8d7f9afa1177ee3a2837fa",
            "to": "0xdae97900d4b184c5d2012dcdb658c008966466dd",
            "gas": "0x9236",
            "value": "0x0",
            "input": "0xc56b1dd7000000000000000000000000000000000000000000000000000000000000004000000000000000000000000000000000000000000000000000000000000000e00000000000000000000000000000000000000000000000000000000000000004000000000000000000000000000000000000000000000000000000000000000300000000000000000000000000000000000000000000000000000000000000070000000000000000000000000000000000000000000000000000000000000001000000000000000000000000000000000000000000000000000000000000000800000000000000000000000000000000000000000000000000000000000000040000000000000000000000000e82fddad51cc3ac12b69761c45bbcb9a2bf3c830000000000000000000000006641415a61bce80d97a715054d1334360ab833eb00000000000000000000000042000000000000000000000000000000000000060000000000000000000000008a21cf9ba08ae709d64cb25afaa951183ec9ff6d",
            "nonce": "0x6",
            "chainId": "0x106a"
          },
          "additionalContracts": [],
          "isFixedGasLimit": false
        }
      ],
      "receipts": [
        {
          "status": "0x1",
          "cumulativeGasUsed": "0x11e10",
          "logs": [],
          "logsBloom": "0x00000000000000000000000000000000000000000000000000000000000000000000000000000000000000000000000000000000000000000000000000000000000000000000000000000000000000000000000000000000000000000000000000000000000000000000000000000000000000000000000000000000000000000000000000000000000000000000000000000000000000000000000000000000000000000000000000000000000000000000000000000000000000000000000000000000000000000000000000000000000000000000000000000000000000000000000000000000000000000000000000000000000000000000000000000000",
          "type": "0x2",
          "transactionHash": "0x4116f6a11a2c6b7fdc0d1429f9d165ac16902a64a31aee31c290180fb26281e9",
          "transactionIndex": "0x1",
          "blockHash": "0x64e2ef7b6cad07aefa1b7e470828b97e4c29611d1b0ee66488c563799a5df03c",
          "blockNumber": "0x15cbec8",
          "gasUsed": "0x69dc",
          "effectiveGasPrice": "0xf433d",
          "from": "0x7d413f244a0e9a0b9c8d7f9afa1177ee3a2837fa",
          "to": "0xdae97900d4b184c5d2012dcdb658c008966466dd",
          "contractAddress": null,
          "l1BaseFeeScalar": "0x2af8",
          "l1BlobBaseFee": "0x1",
          "l1BlobBaseFeeScalar": "0x109618",
          "l1Fee": "0xe2a2f8",
          "l1GasPrice": "0x75cbd",
          "l1GasUsed": "0xaee"
        }
      ],
      "libraries": [],
      "pending": [],
      "returns": {},
      "timestamp": 1751023719,
      "chain": 4202,
      "commit": "321a289"
    },
    {
      "transactions": [
        {
          "hash": "0xc7790d681503206e70438294d2c093b0b8366b1323a485aeb505d623ddf2fa5a",
          "transactionType": "CALL",
          "contractName": "DeployHostIt",
          "contractAddress": "0x238213078dbd09f2d15f4c14c02300fa1b2a81bb",
          "function": "run(uint8[],address[])",
          "arguments": [
            "[3, 7, 1]",
            "[0x5Df6eD08EEC2fD5e41914d291c0cf48Cd3564421, 0xb1D4538B4571d411F07960EF2838Ce337FE1E80E, 0xE591bf0A0CF924A0674d7792db046B23CEbF5f34]"
          ],
          "transaction": {
            "from": "0x7d413f244a0e9a0b9c8d7f9afa1177ee3a2837fa",
            "to": "0x238213078dbd09f2d15f4c14c02300fa1b2a81bb",
            "gas": "0x7743",
            "value": "0x0",
            "input": "0xc56b1dd7000000000000000000000000000000000000000000000000000000000000004000000000000000000000000000000000000000000000000000000000000000c0000000000000000000000000000000000000000000000000000000000000000300000000000000000000000000000000000000000000000000000000000000030000000000000000000000000000000000000000000000000000000000000007000000000000000000000000000000000000000000000000000000000000000100000000000000000000000000000000000000000000000000000000000000030000000000000000000000005df6ed08eec2fd5e41914d291c0cf48cd3564421000000000000000000000000b1d4538b4571d411f07960ef2838ce337fe1e80e000000000000000000000000e591bf0a0cf924a0674d7792db046b23cebf5f34",
            "nonce": "0xd5",
            "chainId": "0x66eee"
          },
          "additionalContracts": [],
          "isFixedGasLimit": false
        }
      ],
      "receipts": [
        {
          "status": "0x1",
          "cumulativeGasUsed": "0x22109",
          "logs": [],
          "logsBloom": "0x00000000000000000000000000000000000000000000000000000000000000000000000000000000000000000000000000000000000000000000000000000000000000000000000000000000000000000000000000000000000000000000000000000000000000000000000000000000000000000000000000000000000000000000000000000000000000000000000000000000000000000000000000000000000000000000000000000000000000000000000000000000000000000000000000000000000000000000000000000000000000000000000000000000000000000000000000000000000000000000000000000000000000000000000000000000",
          "type": "0x2",
          "transactionHash": "0xc7790d681503206e70438294d2c093b0b8366b1323a485aeb505d623ddf2fa5a",
          "transactionIndex": "0x2",
          "blockHash": "0x0f2a27ea4f932533b4258c89bf9f576753dab6f8ffabd097b28c15059bcda4d0",
          "blockNumber": "0x9ff9388",
          "gasUsed": "0x5a6d",
          "effectiveGasPrice": "0x5f5e100",
          "from": "0x7d413f244a0e9a0b9c8d7f9afa1177ee3a2837fa",
          "to": "0x238213078dbd09f2d15f4c14c02300fa1b2a81bb",
          "contractAddress": null,
          "gasUsedForL1": "0x1",
          "l1BlockNumber": "0x83d598",
          "timeboosted": false
        }
      ],
      "libraries": [],
      "pending": [],
      "returns": {},
      "timestamp": 1751023720,
      "chain": 421614,
      "commit": "321a289"
    },
    {
      "transactions": [
        {
          "hash": "0xe463335524a48c842149b4e668b3ca2cf0d66ba90008ff1f45d482ab7e254427",
          "transactionType": "CALL",
          "contractName": "DeployHostIt",
          "contractAddress": "0xd85bdcdae4db1faeb8ef93331525fe68d7c8b3f0",
          "function": "run(uint8[],address[])",
          "arguments": [
            "[3, 7, 1]",
            "[0x7bA2e5c37C4151d654Fcc4b41ffF3Fe693c23852, 0x0b9d5D9136855f6FEc3c0993feE6E9CE8a297846, 0xd00ae08403B9bbb9124bB305C09058E32C39A48c]"
          ],
          "transaction": {
            "from": "0x7d413f244a0e9a0b9c8d7f9afa1177ee3a2837fa",
            "to": "0xd85bdcdae4db1faeb8ef93331525fe68d7c8b3f0",
            "gas": "0x96a5",
            "value": "0x0",
            "input": "0xc56b1dd7000000000000000000000000000000000000000000000000000000000000004000000000000000000000000000000000000000000000000000000000000000c0000000000000000000000000000000000000000000000000000000000000000300000000000000000000000000000000000000000000000000000000000000030000000000000000000000000000000000000000000000000000000000000007000000000000000000000000000000000000000000000000000000000000000100000000000000000000000000000000000000000000000000000000000000030000000000000000000000007ba2e5c37c4151d654fcc4b41fff3fe693c238520000000000000000000000000b9d5d9136855f6fec3c0993fee6e9ce8a297846000000000000000000000000d00ae08403b9bbb9124bb305c09058e32c39a48c",
            "nonce": "0x1a",
            "chainId": "0xa869"
          },
          "additionalContracts": [],
          "isFixedGasLimit": false
        }
      ],
      "receipts": [
        {
          "status": "0x1",
          "cumulativeGasUsed": "0x55d873",
          "logs": [],
          "logsBloom": "0x00000000000000000000000000000000000000000000000000000000000000000000000000000000000000000000000000000000000000000000000000000000000000000000000000000000000000000000000000000000000000000000000000000000000000000000000000000000000000000000000000000000000000000000000000000000000000000000000000000000000000000000000000000000000000000000000000000000000000000000000000000000000000000000000000000000000000000000000000000000000000000000000000000000000000000000000000000000000000000000000000000000000000000000000000000000",
          "type": "0x2",
          "transactionHash": "0xe463335524a48c842149b4e668b3ca2cf0d66ba90008ff1f45d482ab7e254427",
          "transactionIndex": "0x1",
          "blockHash": "0xb3f5f3eec2144226b81ac3a7fc56b55437ebec354d03b0b967e78643ddc28c6b",
          "blockNumber": "0x2899f7b",
          "gasUsed": "0x5a6c",
          "effectiveGasPrice": "0x3b9ac9ff",
          "from": "0x7d413f244a0e9a0b9c8d7f9afa1177ee3a2837fa",
          "to": "0xd85bdcdae4db1faeb8ef93331525fe68d7c8b3f0",
          "contractAddress": null
        }
      ],
      "libraries": [],
      "pending": [],
      "returns": {},
      "timestamp": 1751023722,
      "chain": 43113,
      "commit": "321a289"
    }
  ],
  "timestamp": 1751023736
}